{
  "_format": "hh-sol-artifact-1",
  "contractName": "SelfSovereignIdentitySystem",
  "sourceName": "contracts/selfSovereignIdentitySystem.sol",
  "abi": [
    {
      "anonymous": false,
      "inputs": [
        {
          "indexed": true,
          "internalType": "address",
          "name": "user",
          "type": "address"
        },
        {
          "indexed": false,
          "internalType": "string",
          "name": "name",
          "type": "string"
        },
        {
          "indexed": false,
          "internalType": "string",
          "name": "email",
          "type": "string"
        }
      ],
      "name": "IdentityCreated",
      "type": "event"
    },
    {
      "anonymous": false,
      "inputs": [
        {
          "indexed": true,
          "internalType": "address",
          "name": "user",
          "type": "address"
        },
        {
          "indexed": false,
          "internalType": "string",
          "name": "name",
          "type": "string"
        },
        {
          "indexed": false,
          "internalType": "string",
          "name": "email",
          "type": "string"
        }
      ],
      "name": "IdentityUpdated",
      "type": "event"
    },
    {
      "anonymous": false,
      "inputs": [
        {
          "indexed": true,
          "internalType": "address",
          "name": "user",
          "type": "address"
        }
      ],
      "name": "IdentityVerified",
      "type": "event"
    },
    {
      "inputs": [
        {
          "internalType": "string",
          "name": "_name",
          "type": "string"
        },
        {
          "internalType": "string",
          "name": "_email",
          "type": "string"
        },
        {
          "internalType": "string",
          "name": "_metadata",
          "type": "string"
        }
      ],
      "name": "createIdentity",
      "outputs": [],
      "stateMutability": "nonpayable",
      "type": "function"
    },
    {
      "inputs": [
        {
          "internalType": "address",
          "name": "_user",
          "type": "address"
        }
      ],
      "name": "getIdentity",
      "outputs": [
        {
          "internalType": "string",
          "name": "",
          "type": "string"
        },
        {
          "internalType": "string",
          "name": "",
          "type": "string"
        },
        {
          "internalType": "string",
          "name": "",
          "type": "string"
        },
        {
          "internalType": "bool",
          "name": "",
          "type": "bool"
        }
      ],
      "stateMutability": "view",
      "type": "function"
    },
    {
      "inputs": [
        {
          "internalType": "string",
          "name": "_name",
          "type": "string"
        },
        {
          "internalType": "string",
          "name": "_email",
          "type": "string"
        },
        {
          "internalType": "string",
          "name": "_metadata",
          "type": "string"
        }
      ],
      "name": "updateIdentity",
      "outputs": [],
      "stateMutability": "nonpayable",
      "type": "function"
    },
    {
      "inputs": [
        {
          "internalType": "address",
          "name": "_user",
          "type": "address"
        }
      ],
      "name": "verifyIdentity",
      "outputs": [],
      "stateMutability": "nonpayable",
      "type": "function"
    }
  ],
  "bytecode": "0x608060405234801561001057600080fd5b50610c90806100206000396000f3fe608060405234801561001057600080fd5b506004361061004c5760003560e01c80632fea7b8114610051578063351c4a46146100845780639318ca66146100a0578063b5b90fd9146100bc575b600080fd5b61006b600480360381019061006691906107d3565b6100d8565b60405161007b94939291906108b4565b60405180910390f35b61009e60048036038101906100999190610a43565b610320565b005b6100ba60048036038101906100b59190610a43565b6104e7565b005b6100d660048036038101906100d191906107d3565b61061e565b005b60608060606000806000808773ffffffffffffffffffffffffffffffffffffffff1673ffffffffffffffffffffffffffffffffffffffff16815260200190815260200160002060405180608001604052908160008201805461013990610b19565b80601f016020809104026020016040519081016040528092919081815260200182805461016590610b19565b80156101b25780601f10610187576101008083540402835291602001916101b2565b820191906000526020600020905b81548152906001019060200180831161019557829003601f168201915b505050505081526020016001820180546101cb90610b19565b80601f01602080910402602001604051908101604052809291908181526020018280546101f790610b19565b80156102445780601f1061021957610100808354040283529160200191610244565b820191906000526020600020905b81548152906001019060200180831161022757829003601f168201915b5050505050815260200160028201805461025d90610b19565b80601f016020809104026020016040519081016040528092919081815260200182805461028990610b19565b80156102d65780601f106102ab576101008083540402835291602001916102d6565b820191906000526020600020905b8154815290600101906020018083116102b957829003601f168201915b505050505081526020016003820160009054906101000a900460ff161515151581525050905080600001518160200151826040015183606001519450945094509450509193509193565b60008060003373ffffffffffffffffffffffffffffffffffffffff1673ffffffffffffffffffffffffffffffffffffffff1681526020019081526020016000209050600081600001805461037390610b19565b9050146103b5576040517f08c379a00000000000000000000000000000000000000000000000000000000081526004016103ac90610b97565b60405180910390fd5b6040518060800160405280858152602001848152602001838152602001600015158152506000803373ffffffffffffffffffffffffffffffffffffffff1673ffffffffffffffffffffffffffffffffffffffff16815260200190815260200160002060008201518160000190805190602001906104339291906106be565b5060208201518160010190805190602001906104509291906106be565b50604082015181600201908051906020019061046d9291906106be565b5060608201518160030160006101000a81548160ff0219169083151502179055509050503373ffffffffffffffffffffffffffffffffffffffff167f6b0c3bc6b3d317d2cf8f07426c82d9decd9530eb7b70cd61cb031c35b0a5353a85856040516104d9929190610bb7565b60405180910390a250505050565b60008060003373ffffffffffffffffffffffffffffffffffffffff1673ffffffffffffffffffffffffffffffffffffffff1681526020019081526020016000209050600081600001805461053a90610b19565b9050141561057d576040517f08c379a000000000000000000000000000000000000000000000000000000000815260040161057490610c3a565b60405180910390fd5b838160000190805190602001906105959291906106be565b50828160010190805190602001906105ae9291906106be565b50818160020190805190602001906105c79291906106be565b503373ffffffffffffffffffffffffffffffffffffffff167ffb96589d3b33bea42070ac9f2c42e02179f8d63c02a81c828772540ebe54bb098585604051610610929190610bb7565b60405180910390a250505050565b60016000808373ffffffffffffffffffffffffffffffffffffffff1673ffffffffffffffffffffffffffffffffffffffff16815260200190815260200160002060030160006101000a81548160ff0219169083151502179055508073ffffffffffffffffffffffffffffffffffffffff167f02f93fdaafad8edad1ca75101b1fbda62e64ab9afc26d0ea801ccf6ef02c09ab60405160405180910390a250565b8280546106ca90610b19565b90600052602060002090601f0160209004810192826106ec5760008555610733565b82601f1061070557805160ff1916838001178555610733565b82800160010185558215610733579182015b82811115610732578251825591602001919060010190610717565b5b5090506107409190610744565b5090565b5b8082111561075d576000816000905550600101610745565b5090565b6000604051905090565b600080fd5b600080fd5b600073ffffffffffffffffffffffffffffffffffffffff82169050919050565b60006107a082610775565b9050919050565b6107b081610795565b81146107bb57600080fd5b50565b6000813590506107cd816107a7565b92915050565b6000602082840312156107e9576107e861076b565b5b60006107f7848285016107be565b91505092915050565b600081519050919050565b600082825260208201905092915050565b60005b8381101561083a57808201518184015260208101905061081f565b83811115610849576000848401525b50505050565b6000601f19601f8301169050919050565b600061086b82610800565b610875818561080b565b935061088581856020860161081c565b61088e8161084f565b840191505092915050565b60008115159050919050565b6108ae81610899565b82525050565b600060808201905081810360008301526108ce8187610860565b905081810360208301526108e28186610860565b905081810360408301526108f68185610860565b905061090560608301846108a5565b95945050505050565b600080fd5b600080fd5b7f4e487b7100000000000000000000000000000000000000000000000000000000600052604160045260246000fd5b6109508261084f565b810181811067ffffffffffffffff8211171561096f5761096e610918565b5b80604052505050565b6000610982610761565b905061098e8282610947565b919050565b600067ffffffffffffffff8211156109ae576109ad610918565b5b6109b78261084f565b9050602081019050919050565b82818337600083830152505050565b60006109e66109e184610993565b610978565b905082815260208101848484011115610a0257610a01610913565b5b610a0d8482856109c4565b509392505050565b600082601f830112610a2a57610a2961090e565b5b8135610a3a8482602086016109d3565b91505092915050565b600080600060608486031215610a5c57610a5b61076b565b5b600084013567ffffffffffffffff811115610a7a57610a79610770565b5b610a8686828701610a15565b935050602084013567ffffffffffffffff811115610aa757610aa6610770565b5b610ab386828701610a15565b925050604084013567ffffffffffffffff811115610ad457610ad3610770565b5b610ae086828701610a15565b9150509250925092565b7f4e487b7100000000000000000000000000000000000000000000000000000000600052602260045260246000fd5b60006002820490506001821680610b3157607f821691505b60208210811415610b4557610b44610aea565b5b50919050565b7f4964656e7469747920616c726561647920657869737473000000000000000000600082015250565b6000610b8160178361080b565b9150610b8c82610b4b565b602082019050919050565b60006020820190508181036000830152610bb081610b74565b9050919050565b60006040820190508181036000830152610bd18185610860565b90508181036020830152610be58184610860565b90509392505050565b7f4964656e7469747920646f6573206e6f74206578697374000000000000000000600082015250565b6000610c2460178361080b565b9150610c2f82610bee565b602082019050919050565b60006020820190508181036000830152610c5381610c17565b905091905056fea26469706673582212202f928ee96534a28423c9f7a1bf31c8fa688cd38a34c2ee36b5479c9fd40104ca64736f6c63430008090033",
  "linkReferences": {},
  "deployedLinkReferences": {}
}